S00F0000506C61796572322E7372656376
S113000045C0000060C000005EC000005CC000008D
S11300105AC0000058C0000056C0000054C0000080
S113002052C0000050C000004EC000004CC0000090
S11300304AC00000A0C0000046C0000044C0000048
S113004042C0000040C000003EC000003CC00000B0
S11300503AC0000038C0000036C0000034C00000C0
S113006032C0000030C000002EC000002CC00000D0
S11300702AC0000028C0000026C0000024C00000E0
S113008022C0000020C000001EC0000011241FBEBA
S1130090CFEFD0E4DEBFCDBF13E0A0E0B1E0EEE9E6
S11300A0F0E100E00BBF02C007900D92A238B10747
S11300B0D9F725E0A2E8B3E001C01D92AD30B20744
S11300C0E1F71AD6EAC79CCF80EC80937C00EAE77C
S11300D0F0E08081876880830895ECE7F0E0908108
S11300E0987F8770892B8083EAE7F0E080818064C1
S11300F08083808184FFFDCFEAE7F0E08081806126
S1130100808380917800909179000895609318011C
S11301107093190180931A0190931B016093F0046A
S11301207093F1048093F2049093F30408958BE0A8
S1130130809381008DE790E09093890080938800FC
S113014082E080936F001092850010928400809169
S1130150180190911901A0911A01B0911B0180938B
S1130160F0049093F104A093F204B093F3048FB7D6
S113017080688FBF08951F920F920FB60F921124BB
S11301808F939F93AF93BF938091F0049091F10468
S1130190A091F204B091F3040197A109B1098093ED
S11301A0F0049093F104A093F204B093F304892B28
S11301B08A2B8B2B99F481E08093F40480911801AD
S11301C090911901A0911A01B0911B018093F00440
S11301D09093F104A093F204B093F304BF91AF9110
S11301E09F918F910F900FBE0F901F9018952C9890
S11301F008952C9A08958BEB84B9289A2B9A269803
S11302002C9A81E58CBD08958EBD0DB407FEFDCFFB
S11302100895CF93C82F2998EADF8C2FF5DF299A08
S1130220E8DFCF910895EF92FF920F931F93CF933E
S1130230DF938C01299ADBDFF80101900020E9F7B4
S11302403197E01BF10B1E161F062CF5E8010E0F6B
S11302501F1F1EC0288130E020523109F901EE0F22
S1130260FF1FEE0FFF1FE20FF31FEE55FE4FEE0DC3
S1130270FF1D8081C9DF8FEFE81AF80A85E0E816D0
S1130280F10441F780E0C0DF21960C171D0719F037
S1130290E12CF12CDFCFADDFDF91CF911F910F91D6
S11302A0FF90EF90089528982FEF80E792E0215077
S11302B080409040E1F700C00000289A0895F3DFE1
S11302C081E2A7DF80ECA5DF87E0A3DF83E1A1DF84
S11302D080E29FDF8CE09DCF0895CF93C62F99DFF6
S11302E08C2F97DFCF910895CF93DF9380DF299AE6
S11302F0C8EFD1E080E088DF2197E1F7299879DF22
S1130300DF91CF9108958130910539F082309105C4
S1130310E1F1892B09F044C040C0209102054091CD
S1130320FD04241316C0309105052091F6043217FC
S1130330C8F15091FC0440910C05652F70E0242F06
S113034030E0285F3F4F6217730764F54517E8F004
S1130350089530E02150310950E02417350711F594
S1130360309105052091F6043217E0F45091FC0415
S113037040910C05652F70E0242F30E0285F3F4F3B
S1130380621773077CF4451768F4AEDF62E480E813
S1130390A4DF8CE291E047DFFFCF81E090E0089595
S11303A080E090E008958130910539F08230910524
S11303B0E1F1892B09F044C040C02091F704409139
S11303C00905241316C030910B0520910A05321734
S11303D0C8F15091080540910305652F70E0242F62
S11303E030E0285F3F4F6217730764F54517E8F064
S11303F0089530E02150310950E02417350711F5F4
S113040030910B0520910A053217E0F4509108054C
S113041040910305652F70E0242F30E0285F3F4FA3
S1130420621773077CF4451768F45EDF62E480E8C2
S113043054DF8BE391E0F7DEFFCF81E090E0089595
S113044080E090E00895FF920F931F93CF93DF9382
S11304508C01F62ECCDE299AFF2041F0E8010F0D25
S1130460111D8991D1DEC017D107D9F72998C1DEB2
S1130470DF91CF911F910F91FF900895029708F497
S113048060C081E0809366041092650480E020914E
S11304906604E22FF0E0EE0FFF1FE258FE4F90E0FB
S11304A00190F081E02DE80FF91FDC01A05FBE4F41
S11304B08C9190E002C0959587952A95E2F7808308
S11304C0809165048F5F80936504883000F3809188
S11304D066048F5F809366048930B0F281E0809374
S11304E0660448E050E01092650480E020916604C0
S11304F030E0F901EE0FFF1FE057FE4F90E001904E
S1130500F081E02DE80FF91FDC01A05FBE4F8C9154
S1130510BA01621B730B01C0880F6A95EAF78083E6
S1130520809165048F5F809365048830F8F2809130
S113053066048F5F809366048930A8F280E090E0BF
S113054008956091020561110AC080910C0560E470
S11305508058C3DE68E080E191E075DF22C0605C12
S113056080910C058058B9DEE091F604F0E0EE0FBE
S1130570FF1FE258FE4F68E08081918164DF609143
S11305800205615C80910C058058A7DEE091F604B9
S1130590F0E0EE0FFF1FE057FE4F68E0808191818D
S11305A052DF8091F604883051F41092F604809161
S11305B0020581508093020581E090E0089581E076
S11305C090E008958130910559F024F4892B09F4C1
S11305D077C040C082309105A1F1039749F13AC038
S11305E02091EF04222309F49DC02091F5042230C8
S11305F071F480910C05885F809308058091F6045E
S113060080930B05809102058093090562C0233015
S113061009F088C080910C05815080930805809171
S1130620F60480930B05809102058093090573C03D
S113063080910805843508F046C08F5F80930805D3
S113064048C080910805882309F440C081508093F4
S1130650080561C084E58093080586E08093090558
S113066088E080930B0580E090E00895609109058F
S1130670605C81E832DE61E084E694E0E4DE82E0FE
S113068090E0089560910905605C8F5726DE61E073
S113069084E694E0D8DE60910905605C80910805E9
S11306A080581BDEE0910B05F0E0EE0FFF1FE259CE
S11306B0FE4F61E080819181C6DE82E090E0089582
S11306C081E090E0089581E090E0089581E090E079
S11306D008951092EF0460910905605C809108050B
S11306E08158FBDD61E084E694E0ADDE60910905AC
S11306F0605C809108058058F0DDE0910B05F0E026
S1130700EE0FFF1FE259FE4F61E0808191819BDE75
S113071083E090E008951092EF0480910805811120
S1130720B1CFA4CF0895029708F460C081E080930C
S1130730DB031092DA0380E02091DB03E22FF0E088
S1130740EE0FFF1FE65BFE4F90E00190F081E02D7D
S1130750E80FF91FDC01A050BF4F8C9190E002C05C
S1130760959587952A95E2F780838091DA038F5FC8
S11307708093DA03883000F38091DB038F5F8093EA
S1130780DB038930B0F281E08093DB0348E050E082
S11307901092DA0380E02091DB0330E0F901EE0FE0
S11307A0FF1FE45AFE4F90E00190F081E02DE80F26
S11307B0F91FDC01A050BF4F8C91BA01621B730B6F
S11307C001C0880F6A95EAF780838091DA038F5F0E
S11307D08093DA038830F8F28091DB038F5F809393
S11307E0DB038930A8F280E090E008956091F7047B
S11307F061110AC08091030560E480586EDD68E0F1
S113080080E091E020DE22C0605C80910305805886
S113081064DDE0910A05F0E0EE0FFF1FE65BFE4F9A
S113082068E0808191810FDE6091F704615C8091C2
S11308300305805852DDE0910A05F0E0EE0FFF1F3A
S1130840E45AFE4F68E080819181FDDD80910A05C4
S1130850883051F410920A058091F70481508093F6
S1130860F70481E090E0089581E090E008958130FC
S113087081F0E1ECF0E0808188618083E2ECF0E0DB
S113088080818660808383E38093C4001092C500D6
S11308900895E9ECF0E0808188618083EAECF0E07F
S11308A080818660808383E38093CC001092CD00A6
S11308B00895813029F48091C800882374F0089544
S11308C08091C00088238CF4A6ECB0E0E0ECF0E06A
S11308D08C9180818823E4F30895AEECB0E0E8ECD9
S11308E0F0E08C9180818823E4F30895613041F035
S11308F0E0ECF0E0908195FFFDCF8093C600089571
S1130900E8ECF0E0908195FFFDCF8093CE00089550
S11309100297B0F010920A0582E08093F7048BE40A
S11309208093030510920705109206051092FA04AD
S11309301092F90483E08093FB0480E090E0089532
S113094080E0CBDB9093FA048093F90481E0C5DB6B
S113095090930705809306052091F9043091FA04D9
S1130960253843E03407E0F084E68093040560E032
S1130970BDDF80910A0581110BC08091F704853099
S113098051F097E090930A058F5F8093F70403C0BA
S1130990815080930A051092FB0481E090E0089551
S11309A0283C310520F585E78093040560E09EDF4F
S11309B080910A05883041F410920A058091F70469
S11309C081508093F7040DC0811108C08091F70411
S11309D0882339F081E080930A0503C08F5F8093F8
S11309E00A0581E08093FB0481E090E00895883C4F
S11309F09105A0F420910305222379F182E78093E5
S1130A00040560E073DF809103058F5F8093030525
S1130A1082E08093FB0481E090E008958538934060
S1130A20A0F0809103058C3480F48CE68093040557
S1130A3060E05CDF8091030581508093030583E0CF
S1130A408093FB0481E090E008958EE68093040592
S1130A5060E04CDF81E090E0089585389340A8F38E
S1130A60E4CF8130910559F024F4892B09F47EC038
S1130A7047C082309105D9F1039781F141C0309983
S1130A8015C02091FB04223089F460E083E72EDF57
S1130A9080910305885F8093FC0480910A0580930C
S1130AA005058091F7048093FD0469C030998CC0DA
S1130AB02091FB04233009F087C060E083E716DF50
S1130AC08091030581508093FC0480910A058093F2
S1130AD005058091F7048093FD0471C08091FC04A6
S1130AE0843508F046C08F5F8093FC0448C0809131
S1130AF0FC04882309F440C081508093FC045FC047
S1130B0084E58093FC0486E08093FD0488E0809370
S1130B10050580E090E008956091FD04605C81E843
S1130B20DCDB61E084E694E08EDC82E090E0089512
S1130B306091FD04605C8F57D0DB61E084E694E053
S1130B4082DC6091FD04605C8091FC048058C5DB0C
S1130B50E0910505F0E0EE0FFF1FE259FE4F61E062
S1130B608081918170DC82E090E0089581E090E0E2
S1130B70089581E090E0089581E090E00895609107
S1130B80FD04605C8091FC048158A7DB61E084E68D
S1130B9094E059DC6091FD04605C8091FC04805811
S1130BA09CDBE0910505F0E0EE0FFF1FE259FE4FDC
S1130BB061E08081918147DC83E090E00895809139
S1130BC0FC048111B5CFA8CF0895813041F0E0EC49
S1130BD0F0E080818823ECF78091C6000895E8EC6A
S1130BE0F0E080818823ECF78091CE00089502978D
S1130BF0A0F01092F60482E08093020510920C0596
S1130C001092FF041092FE04109201051092000548
S1130C108093F50480E090E008958091C0008823DB
S1130C200CF064C080E0D1DF8093F80480E041DE02
S1130C308091F8048436B9F48091F60481110BC0D4
S1130C4080910205853051F097E09093F6048F5F10
S1130C508093020503C081508093F6041092F5043A
S1130C6081E090E008958537F9F48091F6048830A6
S1130C7041F41092F604809102058150809302059C
S1130C800DC0811108C080910205882339F081E0EC
S1130C908093F60403C08F5F8093F60481E0809311
S1130CA0F50481E090E00895823759F480910C05B1
S1130CB08F5F80930C0582E08093F50481E090E0DF
S1130CC008958C3659F480910C05815080930C055D
S1130CD083E08093F50481E090E00895833749F43C
S1130CE081E08093EF0481E090E0089581E090E05A
S1130CF0089581E090E00895CF93DF93CDB7DEB7F8
S1130D0060970FB6F894DEBF0FBECDBF11B88FEF5A
S1130D1082B98AB91BB817B888B980E0A8DDD4D9DC
S1130D206ADACDDAE1DA62E48FE9D7DA18E200E0D0
S1130D30B12CA12C5BE440E030E020E004C0162F8D
S1130D40072FB82EA92E652F742F832F922F212FB2
S1130D50302F4B2D5A2D7FD1512F402F3B2D2A2D33
S1130D60611571058105910551F70F2EFBE4FF2EE6
S1130D70F02DE12CD12CC12C04C0F62EE72ED82E58
S1130D80C92E612F702F8B2D9A2D2F2D3E2D4D2D79
S1130D905C2D61D11F2D0E2DBD2CAC2C6115710560
S1130DA08105910551F71BE400E0B12CA12C04C08E
S1130DB0162F072FB82EA92E6F2D7E2D8D2D9C2D2D
S1130DC0212F302F4B2D5A2D46D1F12EE02EDB2C26
S1130DD0CA2C611571058105910551F70F2EF8E2B2
S1130DE0FF2EF02DE12CD12CC12C04C0F62EE72EC1
S1130DF0D82EC92E612F702F8B2D9A2D2F2D3E2D7D
S1130E004D2D5C2D28D11F2D0E2DBD2CAC2C611524
S1130E1071058105910551F70F2EF8E2AF2EF02DE3
S1130E20B12C00E010E004C0A62EB72E082F192F15
S1130E306F2D7E2D8D2D9C2D2A2D3B2D402F512F36
S1130E400AD1FA2CEB2CD02EC12E61157105810527
S1130E50910551F76BE470E080E090E02A2D3B2D82
S1130E60402F512FF8D069017A0168E270E080E0E8
S1130E7090E02A2D3B2D402F512FEDD080E1ECE165
S1130E80F1E0DE01119601900D928A95E1F7EFEC05
S1130E90F3E06FEF6083C182D282E382F482C58281
S1130EA0D682E782F08688E894E092878187E4EC32
S1130EB0F3E06083C182D282E382F482C582D68267
S1130EC0E782F08683E993E092878187E9EBF3E098
S1130ED0608321833283438354832583368347830A
S1130EE0508781E395E092878187EEEAF3E060839F
S1130EF0C182D282E382F482C582D682E782F086FE
S1130F0087EF95E092878187E3EAF3E06083C1820B
S1130F10D282E382F482C582D682E782F0868EE3AF
S1130F2092E092878187E8E9F3E06083218332834A
S1130F3043835483258336834783508782EE92E02C
S1130F4092878187EDE8F3E06083218332834383D2
S1130F505483258336834783508783E891E09287BF
S1130F608187E2E8F3E060832183328343835483FF
S1130F70258336834783508783ED91E09287818769
S1130F806A2D7B2D802F912FC1D8D1D81092DA03EE
S1130F90E0E0F0E0EE0FFF1F81E090E08C0F9D1F7A
S1130FA0E80FF91F00811181D80115964D915D91CB
S1130FB06D917C91189711968D919D910D90BC9196
S1130FC0A02D481759076A077B07E9F4F8018081C7
S1130FD00184F285E02D082E000C990B0995D801A7
S1130FE08C93E091DA03F0E0EE0FFF1F81E090E0D4
S1130FF08C0F9D1FE80FF91F0190F081E02D1582E1
S11310001682178210864091DA03A42FB0E0AA0F4B
S1131010BB1FE1E0F0E0EC0FFD1FAE0FBF1F2D91F1
S11310203C91F90185819681A781B0850196A11D26
S1131030B11D85839683A783B087E1E0E40FE09335
S1131040DA03E83008F4A5CF8091F4048823E1F3AF
S11310501092F4049BCFA1E21A2EAA1BBB1BFD0124
S11310600DC0AA1FBB1FEE1FFF1FA217B307E40783
S1131070F50720F0A21BB30BE40BF50B661F771FDB
S1131080881F991F1A9469F76095709580959095BB
S11110909B01AC01BD01CF010895F894FFCF80
S113109E0008EB3F3FEB08008040201008040201DB
S11310AE0008EB3F3FEB080001000000CF03C40330
S11310BEB903AE03A30398038D038203504C415925
S11310CE455220322057494E532100504C41594528
S11310DE5220312057494E532100000114040C04B0
S11310EE0404FC03F403EC03E403DC035C04540483
S11310FE4C0444043C0434042C0424041C0408014D
S113110E09010A010B010C010D010E010F01100161
S113111E9F0497048F0487047F0477046F04670485
S113112EE704DF04D704CF04C704BF04B704AF0435
S113113EA704000000000000005F00000007000785
S113114E00147F147F14242A7F2A12231308646246
S113115E36495522500005030000001C22410000B0
S113116E41221C0014083E081408083E08080050CA
S113117E300000080808080800606000002010080D
S113118E04023E5149453E00427F400042615149AE
S113119E462141454B311814127F102745454539D8
S11311AE3C4A494930017109050336494949360615
S11311BE4949291E00363600000056360000081430
S11311CE2241001414141414004122140802015173
S11311DE0906324979413E7E1111117E7F494949F2
S11311EE363E414141227F4141221C7F49494941BA
S11311FE7F090909013E4149497A7F0808087F00A1
S113120E417F41002040413F017F081422417F402D
S113121E4040407F020C027F7F0408107F3E414114
S113122E413E7F090909063E4151215E7F09192974
S113123E46464949493101017F01013F4040403F43
S113124E1F2040201F3F4038403F6314081463079B
S113125E087008076151494543007F41410002046B
S113126E0810200041417F00040201020440404066
S113127E4040000102040020545454787F484444F2
S113128E383844444420384444487F38545454181D
S113129E087E0901020C5252523E7F080404780063
S11312AE447D40002040443D007F1028440000410E
S11312BE7F40007C041804787C0804047838444485
S11312CE44387C14141408081414187C7C08040480
S11312DE084854545420043F4440203C4040207C51
S11312EE1C2040201C3C4030403C44281028440C18
S11312FE5050503C4464544C4400083641000000A5
S113130E7F00000041360800100808100878464196
S105131E46780B
S9030000FC
