S015000046696E616C5F50726F6A6563742E73726563EF
S113000045C0000060C000005EC000005CC000008D
S11300105AC0000058C0000056C0000054C0000080
S113002052C0000050C000004EC000004CC0000090
S11300304AC00000ACC1000046C0000044C000003B
S113004042C0000040C000003EC000003CC00000B0
S11300503AC0000038C0000036C0000034C00000C0
S113006032C0000030C000002EC000002CC00000D0
S11300702AC0000028C0000026C0000024C00000E0
S113008022C0000020C000001EC0000011241FBEBA
S1130090CFEFD0E4DEBFCDBF13E0A0E0B1E0EEE7E8
S11300A0FFE000E00BBF02C007900D92A238B10739
S11300B0D9F725E0A2E8B3E001C01D92AA30B20747
S11300C0E1F78CD55AC79CCF80EC80937C00EAE79B
S11300D0F0E08081876880830895ECE7F0E0908108
S11300E0987F8770892B8083EAE7F0E080818064C1
S11300F08083808184FFFDCFEAE7F0E08081806126
S11301008083809178009091790008950297B0F0EF
S11301101092F50482E0809300058BE48093090536
S11301201092FD041092FC041092FF041092FE043D
S113013083E08093F40480E090E0089582E0CDDFD2
S11301409093FF048093FE0483E0C7DF9093FD0443
S11301508093FC042091FE043091FF04253843E091
S11301603407A8F02091F50421110BC0209100055B
S1130170253051F037E03093F5042F5F20930005CC
S113018003C021502093F5041092F4041FC0283CAE
S11301903105E0F42091F504283041F41092F5047F
S11301A0209100052150209300050DC0211108C0A5
S11301B020910005222339F021E02093F50403C0A7
S11301C02F5F2093F50421E02093F404853823E085
S11301D0920768F0209109052C3448F42F5F20938E
S11301E0090582E08093F40481E090E00895883C5E
S11301F0910568F480910905882361F0815080930A
S1130200090583E08093F40481E090E0089581E09F
S113021090E0089581E090E008950297A0F0109294
S1130220070582E08093F6041092010510920405FC
S1130230109203051092F8041092F7048093F904C5
S113024080E090E0089580E048DF9093F804809384
S1130250F70481E042DF9093040580930305209125
S1130260F7043091F804253843E03407A8F02091CE
S1130270070521110BC02091F604253051F037E019
S1130280309307052F5F2093F60403C02150209379
S113029007051092F9041FC0283C3105E0F42091B1
S11302A00705283041F4109207052091F6042150E7
S11302B02093F6040DC0211108C02091F6042223D6
S11302C039F021E02093070503C02F5F2093070531
S11302D021E02093F904853823E0920768F0209107
S11302E001052C3448F42F5F2093010582E08093AC
S11302F0F90481E090E00895883C910568F48091C8
S11303000105882361F081508093010583E0809387
S1130310F90481E090E0089581E090E0089581E09F
S113032090E00895609318017093190180931A0165
S113033090931B016093EF047093F0048093F10495
S11303409093F20408958BE0809381008DE790E010
S1130350909389008093880082E080936F001092CC
S11303608500109284008091180190911901A09148
S11303701A01B0911B018093EF049093F004A093B1
S1130380F104B093F2048FB780688FBF08951F9271
S11303900F920FB60F9211248F939F93AF93BF9335
S11303A08091EF049091F004A091F104B091F204D3
S11303B00197A109B1098093EF049093F004A093ED
S11303C0F104B093F204892B8A2B8B2B99F481E0EE
S11303D08093F3048091180190911901A0911A015E
S11303E0B0911B018093EF049093F004A093F10467
S11303F0B093F204BF91AF919F918F910F900FBE74
S11304000F901F9018952C9808952C9A08958BEBB3
S113041084B9289A2B9A26982C9A81E58CBD089544
S11304208EBD0DB407FEFDCF0895CF93C82F299834
S1130430EADF8C2FF5DF299AE8DFCF910895EF9258
S1130440FF920F931F93CF93DF938C01299ADBDFE5
S1130450F80101900020E9F73197E01BF10B1E161B
S11304601F062CF5E8010E0F1F1F1EC0288130E067
S113047020523109F901EE0FFF1FEE0FFF1FE20FAB
S1130480F31FEE55FE4FEE0DFF1D8081C9DF8FEF88
S1130490E81AF80A85E0E816F10441F780E0C0DFC5
S11304A021960C171D0719F0E12CF12CDFCFADDFDD
S11304B0DF91CF911F910F91FF90EF9008952898AD
S11304C02FEF80E792E0215080409040E1F700C098
S11304D00000289A0895F3DF81E2A7DF80ECA5DF0E
S11304E087E0A3DF83E1A1DF80E29FDF8CE09DCF83
S11304F00895CF93C62F99DF8C2F97DFCF9108955E
S1130500CF93DF9380DF299AC8EFD1E080E088DFC2
S11305102197E1F7299879DFDF91CF910895813010
S1130520910539F082309105E1F1892B09F044C03D
S113053040C0209100054091FB04241316C0309163
S113054002052091F5043217C8F15091FA04409144
S11305500905652F70E0242F30E0285F3F4F6217B4
S1130560730764F54517E8F0089530E02150310928
S113057050E02417350711F5309102052091F50458
S11305803217E0F45091FA0440910905652F70E0A8
S1130590242F30E0285F3F4F621773077CF4451720
S11305A068F4AEDF62E480E8A4DF8CE291E047DF28
S11305B0FFCF81E090E0089580E090E008958130DD
S11305C0910539F082309105E1F1892B09F044C09D
S11305D040C02091F60440910605241316C03091C2
S11305E00805209107053217C8F15091050540917F
S11305F00105652F70E0242F30E0285F3F4F62171C
S1130600730764F54517E8F0089530E02150310987
S113061050E02417350711F530910805209107059E
S11306203217E0F45091050540910105652F70E003
S1130630242F30E0285F3F4F621773077CF445177F
S113064068F45EDF62E480E854DF8BE391E0F7DE78
S1130650FFCF81E090E0089580E090E00895FF925C
S11306600F931F93CF93DF938C01F62ECCDE299A40
S1130670FF2041F0E8010F0D111D8991D1DEC01753
S1130680D107D9F72998C1DEDF91CF911F910F913E
S1130690FF900895029708F460C081E08093660497
S11306A01092650480E020916604E22FF0E0EE0FE2
S11306B0FF1FE258FE4F90E00190F081E02DE80F1B
S11306C0F91FDC01A05FBE4F8C9190E002C09595AC
S11306D087952A95E2F78083809165048F5F8093E4
S11306E06504883000F3809166048F5F809366040C
S11306F08930B0F281E08093660448E050E01092C3
S1130700650480E02091660430E0F901EE0FFF1FDC
S1130710E057FE4F90E00190F081E02DE80FF91FC3
S1130720DC01A05FBE4F8C91BA01621B730B01C048
S1130730880F6A95EAF78083809165048F5F8093C0
S113074065048830F8F2809166048F5F80936604B4
S11307508930A8F280E090E008956091000561116D
S11307600AC08091090560E48058C3DE68E080E136
S113077091E075DF22C0605C809109058058B9DE84
S1130780E091F504F0E0EE0FFF1FE258FE4F68E041
S11307908081918164DF60910005615C809109052D
S11307A08058A7DEE091F504F0E0EE0FFF1FE0575C
S11307B0FE4F68E08081918152DF8091F50488309A
S11307C051F41092F5048091000581508093000546
S11307D081E090E0089581E090E0089581309105F2
S11307E059F024F4892B09F478C041C08230910572
S11307F0A9F1039751F13BC0319912C02091F4043F
S1130800223071F480910905885F809305058091F9
S1130810F50480930805809100058093060566C061
S1130820319989C02091F404233009F084C0809167
S113083009058150809305058091F504809308058E
S1130840809100058093060571C08091050584356B
S113085008F046C08F5F8093050548C08091050568
S1130860882309F440C08150809305055FC084E566
S11308708093050586E08093060588E0809308054B
S113088080E090E0089560910605605C81E831DEC7
S113089061E084E694E0E3DE82E090E00895609114
S11308A00605605C8F5725DE61E084E694E0D7DEC0
S11308B060910605605C8091050580581ADEE09120
S11308C00805F0E0EE0FFF1FE259FE4F61E0808162
S11308D09181C5DE82E090E0089581E090E0089582
S11308E081E090E0089581E090E00895609106052C
S11308F0605C809105058158FCDD61E084E694E04C
S1130900AEDE60910605605C809105058058F1DDDE
S1130910E0910805F0E0EE0FFF1FE259FE4F61E0A1
S1130920808191819CDE83E090E0089580910505AB
S11309308111B5CFA8CF0895029708F460C081E073
S11309408093DB031092DA0380E02091DB03E22F33
S1130950F0E0EE0FFF1FE65BFE4F90E00190F081A8
S1130960E02DE80FF91FDC01A050BF4F8C9190E0FF
S113097002C0959587952A95E2F780838091DA03E2
S11309808F5F8093DA03883000F38091DB038F5FFD
S11309908093DB038930B0F281E08093DB0348E08D
S11309A050E01092DA0380E02091DB0330E0F9019B
S11309B0EE0FFF1FE45AFE4F90E00190F081E02D0E
S11309C0E80FF91FDC01A050BF4F8C91BA01621BE4
S11309D0730B01C0880F6A95EAF780838091DA036C
S11309E08F5F8093DA038830F8F28091DB038F5FA6
S11309F08093DB038930A8F280E090E00895609151
S1130A00F60461110AC08091010560E4805871DD2B
S1130A1068E080E091E023DE22C0605C8091010503
S1130A20805867DDE0910705F0E0EE0FFF1FE65BFD
S1130A30FE4F68E08081918112DE6091F604615C72
S1130A4080910105805855DDE0910705F0E0EE0F37
S1130A50FF1FE45AFE4F68E08081918100DE80919F
S1130A600705883051F4109207058091F6048150EF
S1130A708093F60481E090E0089581E090E0089589
S1130A808130910559F024F4892B09F478C041C0D0
S1130A9082309105A9F1039751F13BC0309912C0FE
S1130AA02091F904223071F480910105885F8093CC
S1130AB0FA0480910705809302058091F6048093DF
S1130AC0FB0466C0309989C02091F904233009F0F1
S1130AD084C08091010581508093FA0480910705B8
S1130AE0809302058091F6048093FB0471C0809189
S1130AF0FA04843508F046C08F5F8093FA0448C036
S1130B008091FA04882309F440C081508093FA0448
S1130B105FC084E58093FA0486E08093FB0488E058
S1130B208093020580E090E008956091FB04605C8E
S1130B3081E8DFDC61E084E694E091DD82E090E02E
S1130B4008956091FB04605C8F57D3DC61E084E618
S1130B5094E085DD6091FB04605C8091FA04805828
S1130B60C8DCE0910205F0E0EE0FFF1FE259FE4FF2
S1130B7061E08081918173DD82E090E0089581E0FD
S1130B8090E0089581E090E0089581E090E0089578
S1130B906091FB04605C8091FA048158AADC61E0F6
S1130BA084E694E05CDD6091FB04605C8091FA046F
S1130BB080589FDCE0910205F0E0EE0FFF1FE25940
S1130BC0FE4F61E0808191814ADD83E090E00895E9
S1130BD08091FA048111B5CFA8CF0895CF93DF9304
S1130BE0CDB7DEB760970FB6F894DEBF0FBECDBFAA
S1130BF011B88FEF82B98AB91BB817B888B964DA0B
S1130C0006DC69DC7DDC62E48FE973DC18E200E079
S1130C10B12CA12C5BE440E030E020E004C0162FAE
S1130C20072FB82EA92E652F742F832F922F212FD3
S1130C30302F4B2D5A2D7FD1512F402F3B2D2A2D54
S1130C40611571058105910551F70F2EFBE4FF2E07
S1130C50F02DE12CD12CC12C04C0F62EE72ED82E79
S1130C60C92E612F702F8B2D9A2D2F2D3E2D4D2D9A
S1130C705C2D61D11F2D0E2DBD2CAC2C6115710581
S1130C808105910551F71BE400E0B12CA12C04C0AF
S1130C90162F072FB82EA92E6F2D7E2D8D2D9C2D4E
S1130CA0212F302F4B2D5A2D46D1F12EE02EDB2C47
S1130CB0CA2C611571058105910551F70F2EF8E2D3
S1130CC0FF2EF02DE12CD12CC12C04C0F62EE72EE2
S1130CD0D82EC92E612F702F8B2D9A2D2F2D3E2D9E
S1130CE04D2D5C2D28D11F2D0E2DBD2CAC2C611546
S1130CF071058105910551F70F2EF8E2AF2EF02D05
S1130D00B12C00E010E004C0A62EB72E082F192F36
S1130D106F2D7E2D8D2D9C2D2A2D3B2D402F512F57
S1130D200AD1FA2CEB2CD02EC12E61157105810548
S1130D30910551F76BE470E080E090E02A2D3B2DA3
S1130D40402F512FF8D069017A0168E270E080E009
S1130D5090E02A2D3B2D402F512FEDD080E1ECE186
S1130D60F1E0DE01119601900D928A95E1F7EFEC26
S1130D70F3E06FEF6083C182D282E382F482C582A2
S1130D80D682E782F0868DE091E092878187E4EC59
S1130D90F3E06083C182D282E382F482C582D68288
S1130DA0E782F0868CE994E092878187E9EBF3E0AF
S1130DB0608321833283438354832583368347832B
S1130DC0508780E495E092878187EEEAF3E06083C0
S1130DD0C182D282E382F482C582D682E782F0861F
S1130DE086E890E092878187E3EAF3E06083C1823A
S1130DF0D282E382F482C582D682E782F0868AE4D4
S1130E0093E092878187E8E9F3E06083218332836A
S1130E104383548325833683478350878EEE93E040
S1130E2092878187EDE8F3E06083218332834383F3
S1130E30548325833683478350878FE892E09287D3
S1130E408187E2E8F3E06083218332834383548320
S1130E5025833683478350878FED92E0928781877D
S1130E606A2D7B2D802F912F5DDA6DDA1092DA03D3
S1130E70E0E0F0E0EE0FFF1F81E090E08C0F9D1F9B
S1130E80E80FF91F00811181D80115964D915D91EC
S1130E906D917C91189711968D919D910D90BC91B7
S1130EA0A02D481759076A077B07E9F4F8018081E8
S1130EB00184F285E02D082E000C990B0995D801C8
S1130EC08C93E091DA03F0E0EE0FFF1F81E090E0F5
S1130ED08C0F9D1FE80FF91F0190F081E02D158202
S1130EE01682178210864091DA03A42FB0E0AA0F6D
S1130EF0BB1FE1E0F0E0EC0FFD1FAE0FBF1F2D9113
S1130F003C91F90185819681A781B0850196A11D47
S1130F10B11D85839683A783B087E1E0E40FE09356
S1130F20DA03E83008F4A5CF8091F3048823E1F3D1
S1130F301092F3049BCFA1E21A2EAA1BBB1BFD0146
S1130F400DC0AA1FBB1FEE1FFF1FA217B307E407A4
S1130F50F50720F0A21BB30BE40BF50B661F771FFC
S1130F60881F991F1A9469F76095709580959095DC
S1110F709B01AC01BD01CF010895F894FFCFA1
S1130F7E0008EB3F3FEB08008040201008040201FC
S1130F8E0008EB3F3FEB080001000000CF03C40351
S1130F9EB903AE03A30398038D038203504C415946
S1130FAE455220312057494E532100504C4159454A
S1130FBE5220322057494E532100000114040C04D0
S1130FCE0404FC03F403EC03E403DC035C045404A4
S1130FDE4C0444043C0434042C0424041C0408016E
S1130FEE09010A010B010C010D010E010F01100183
S1130FFE9F0497048F0487047F0477046F046704A7
S113100EE704DF04D704CF04C704BF04B704AF0456
S113101EA704000000000000005F000000070007A6
S113102E00147F147F14242A7F2A12231308646267
S113103E36495522500005030000001C22410000D1
S113104E41221C0014083E081408083E08080050EB
S113105E300000080808080800606000002010082E
S113106E04023E5149453E00427F400042615149CF
S113107E462141454B311814127F102745454539F9
S113108E3C4A494930017109050336494949360636
S113109E4949291E00363600000056360000081451
S11310AE2241001414141414004122140802015194
S11310BE0906324979413E7E1111117E7F49494913
S11310CE363E414141227F4141221C7F49494941DB
S11310DE7F090909013E4149497A7F0808087F00C2
S11310EE417F41002040413F017F081422417F404F
S11310FE4040407F020C027F7F0408107F3E414136
S113110E413E7F090909063E4151215E7F09192995
S113111E46464949493101017F01013F4040403F64
S113112E1F2040201F3F4038403F631408146307BC
S113113E087008076151494543007F41410002048C
S113114E0810200041417F00040201020440404087
S113115E4040000102040020545454787F48444413
S113116E383844444420384444487F38545454183E
S113117E087E0901020C5252523E7F080404780084
S113118E447D40002040443D007F1028440000412F
S113119E7F40007C041804787C08040478384444A6
S11311AE44387C14141408081414187C7C080404A1
S11311BE084854545420043F4440203C4040207C72
S11311CE1C2040201C3C4030403C44281028440C39
S11311DE5050503C4464544C4400083641000000C6
S11311EE7F000000413608001008081008784641B8
S10511FE46782D
S9030000FC
